{
  "_format": "hh-sol-artifact-1",
  "contractName": "Naruto",
  "sourceName": "contracts/Naruto.sol",
  "abi": [
    {
      "inputs": [],
      "stateMutability": "nonpayable",
      "type": "constructor"
    },
    {
      "inputs": [],
      "name": "ApprovalCallerNotOwnerNorApproved",
      "type": "error"
    },
    {
      "inputs": [],
      "name": "ApprovalQueryForNonexistentToken",
      "type": "error"
    },
    {
      "inputs": [],
      "name": "BalanceQueryForZeroAddress",
      "type": "error"
    },
    {
      "inputs": [],
      "name": "MintERC2309QuantityExceedsLimit",
      "type": "error"
    },
    {
      "inputs": [],
      "name": "MintToZeroAddress",
      "type": "error"
    },
    {
      "inputs": [],
      "name": "MintZeroQuantity",
      "type": "error"
    },
    {
      "inputs": [],
      "name": "OwnerQueryForNonexistentToken",
      "type": "error"
    },
    {
      "inputs": [],
      "name": "OwnershipNotInitializedForExtraData",
      "type": "error"
    },
    {
      "inputs": [],
      "name": "TransferCallerNotOwnerNorApproved",
      "type": "error"
    },
    {
      "inputs": [],
      "name": "TransferFromIncorrectOwner",
      "type": "error"
    },
    {
      "inputs": [],
      "name": "TransferToNonERC721ReceiverImplementer",
      "type": "error"
    },
    {
      "inputs": [],
      "name": "TransferToZeroAddress",
      "type": "error"
    },
    {
      "inputs": [],
      "name": "URIQueryForNonexistentToken",
      "type": "error"
    },
    {
      "anonymous": false,
      "inputs": [
        {
          "indexed": true,
          "internalType": "address",
          "name": "owner",
          "type": "address"
        },
        {
          "indexed": true,
          "internalType": "address",
          "name": "approved",
          "type": "address"
        },
        {
          "indexed": true,
          "internalType": "uint256",
          "name": "tokenId",
          "type": "uint256"
        }
      ],
      "name": "Approval",
      "type": "event"
    },
    {
      "anonymous": false,
      "inputs": [
        {
          "indexed": true,
          "internalType": "address",
          "name": "owner",
          "type": "address"
        },
        {
          "indexed": true,
          "internalType": "address",
          "name": "operator",
          "type": "address"
        },
        {
          "indexed": false,
          "internalType": "bool",
          "name": "approved",
          "type": "bool"
        }
      ],
      "name": "ApprovalForAll",
      "type": "event"
    },
    {
      "anonymous": false,
      "inputs": [
        {
          "indexed": true,
          "internalType": "uint256",
          "name": "fromTokenId",
          "type": "uint256"
        },
        {
          "indexed": false,
          "internalType": "uint256",
          "name": "toTokenId",
          "type": "uint256"
        },
        {
          "indexed": true,
          "internalType": "address",
          "name": "from",
          "type": "address"
        },
        {
          "indexed": true,
          "internalType": "address",
          "name": "to",
          "type": "address"
        }
      ],
      "name": "ConsecutiveTransfer",
      "type": "event"
    },
    {
      "anonymous": false,
      "inputs": [
        {
          "indexed": true,
          "internalType": "address",
          "name": "from",
          "type": "address"
        },
        {
          "indexed": true,
          "internalType": "address",
          "name": "to",
          "type": "address"
        },
        {
          "indexed": true,
          "internalType": "uint256",
          "name": "tokenId",
          "type": "uint256"
        }
      ],
      "name": "Transfer",
      "type": "event"
    },
    {
      "inputs": [
        {
          "internalType": "address",
          "name": "to",
          "type": "address"
        },
        {
          "internalType": "uint256",
          "name": "tokenId",
          "type": "uint256"
        }
      ],
      "name": "approve",
      "outputs": [],
      "stateMutability": "payable",
      "type": "function"
    },
    {
      "inputs": [
        {
          "internalType": "address",
          "name": "owner",
          "type": "address"
        }
      ],
      "name": "balanceOf",
      "outputs": [
        {
          "internalType": "uint256",
          "name": "",
          "type": "uint256"
        }
      ],
      "stateMutability": "view",
      "type": "function"
    },
    {
      "inputs": [
        {
          "internalType": "uint256",
          "name": "tokenId",
          "type": "uint256"
        }
      ],
      "name": "getApproved",
      "outputs": [
        {
          "internalType": "address",
          "name": "",
          "type": "address"
        }
      ],
      "stateMutability": "view",
      "type": "function"
    },
    {
      "inputs": [
        {
          "internalType": "address",
          "name": "owner",
          "type": "address"
        },
        {
          "internalType": "address",
          "name": "operator",
          "type": "address"
        }
      ],
      "name": "isApprovedForAll",
      "outputs": [
        {
          "internalType": "bool",
          "name": "",
          "type": "bool"
        }
      ],
      "stateMutability": "view",
      "type": "function"
    },
    {
      "inputs": [
        {
          "internalType": "uint256",
          "name": "quantity",
          "type": "uint256"
        }
      ],
      "name": "mint",
      "outputs": [],
      "stateMutability": "payable",
      "type": "function"
    },
    {
      "inputs": [],
      "name": "name",
      "outputs": [
        {
          "internalType": "string",
          "name": "",
          "type": "string"
        }
      ],
      "stateMutability": "view",
      "type": "function"
    },
    {
      "inputs": [],
      "name": "owner",
      "outputs": [
        {
          "internalType": "address",
          "name": "",
          "type": "address"
        }
      ],
      "stateMutability": "view",
      "type": "function"
    },
    {
      "inputs": [
        {
          "internalType": "uint256",
          "name": "tokenId",
          "type": "uint256"
        }
      ],
      "name": "ownerOf",
      "outputs": [
        {
          "internalType": "address",
          "name": "",
          "type": "address"
        }
      ],
      "stateMutability": "view",
      "type": "function"
    },
    {
      "inputs": [],
      "name": "promptUsed",
      "outputs": [
        {
          "internalType": "string",
          "name": "",
          "type": "string"
        }
      ],
      "stateMutability": "pure",
      "type": "function"
    },
    {
      "inputs": [
        {
          "internalType": "address",
          "name": "from",
          "type": "address"
        },
        {
          "internalType": "address",
          "name": "to",
          "type": "address"
        },
        {
          "internalType": "uint256",
          "name": "tokenId",
          "type": "uint256"
        }
      ],
      "name": "safeTransferFrom",
      "outputs": [],
      "stateMutability": "payable",
      "type": "function"
    },
    {
      "inputs": [
        {
          "internalType": "address",
          "name": "from",
          "type": "address"
        },
        {
          "internalType": "address",
          "name": "to",
          "type": "address"
        },
        {
          "internalType": "uint256",
          "name": "tokenId",
          "type": "uint256"
        },
        {
          "internalType": "bytes",
          "name": "_data",
          "type": "bytes"
        }
      ],
      "name": "safeTransferFrom",
      "outputs": [],
      "stateMutability": "payable",
      "type": "function"
    },
    {
      "inputs": [
        {
          "internalType": "address",
          "name": "operator",
          "type": "address"
        },
        {
          "internalType": "bool",
          "name": "approved",
          "type": "bool"
        }
      ],
      "name": "setApprovalForAll",
      "outputs": [],
      "stateMutability": "nonpayable",
      "type": "function"
    },
    {
      "inputs": [
        {
          "internalType": "bytes4",
          "name": "interfaceId",
          "type": "bytes4"
        }
      ],
      "name": "supportsInterface",
      "outputs": [
        {
          "internalType": "bool",
          "name": "",
          "type": "bool"
        }
      ],
      "stateMutability": "view",
      "type": "function"
    },
    {
      "inputs": [],
      "name": "symbol",
      "outputs": [
        {
          "internalType": "string",
          "name": "",
          "type": "string"
        }
      ],
      "stateMutability": "view",
      "type": "function"
    },
    {
      "inputs": [
        {
          "internalType": "uint256",
          "name": "tokenId",
          "type": "uint256"
        }
      ],
      "name": "tokenURI",
      "outputs": [
        {
          "internalType": "string",
          "name": "",
          "type": "string"
        }
      ],
      "stateMutability": "view",
      "type": "function"
    },
    {
      "inputs": [],
      "name": "totalSupply",
      "outputs": [
        {
          "internalType": "uint256",
          "name": "",
          "type": "uint256"
        }
      ],
      "stateMutability": "view",
      "type": "function"
    },
    {
      "inputs": [
        {
          "internalType": "address",
          "name": "from",
          "type": "address"
        },
        {
          "internalType": "address",
          "name": "to",
          "type": "address"
        },
        {
          "internalType": "uint256",
          "name": "tokenId",
          "type": "uint256"
        }
      ],
      "name": "transferFrom",
      "outputs": [],
      "stateMutability": "payable",
      "type": "function"
    }
  ],
  "bytecode": "0x608060405260405180610100016040528060ce8152602001620022f560ce9139600990816200002f9190620003ac565b503480156200003d57600080fd5b506040518060400160405280600681526020017f4e415255544f00000000000000000000000000000000000000000000000000008152506040518060400160405280600381526020017f4e525400000000000000000000000000000000000000000000000000000000008152508160029081620000bb9190620003ac565b508060039081620000cd9190620003ac565b50620000de6200012d60201b60201c565b600081905550505033600860006101000a81548173ffffffffffffffffffffffffffffffffffffffff021916908373ffffffffffffffffffffffffffffffffffffffff16021790555062000493565b600090565b600081519050919050565b7f4e487b7100000000000000000000000000000000000000000000000000000000600052604160045260246000fd5b7f4e487b7100000000000000000000000000000000000000000000000000000000600052602260045260246000fd5b60006002820490506001821680620001b457607f821691505b602082108103620001ca57620001c96200016c565b5b50919050565b60008190508160005260206000209050919050565b60006020601f8301049050919050565b600082821b905092915050565b600060088302620002347fffffffffffffffffffffffffffffffffffffffffffffffffffffffffffffffff82620001f5565b620002408683620001f5565b95508019841693508086168417925050509392505050565b6000819050919050565b6000819050919050565b60006200028d62000287620002818462000258565b62000262565b62000258565b9050919050565b6000819050919050565b620002a9836200026c565b620002c1620002b88262000294565b84845462000202565b825550505050565b600090565b620002d8620002c9565b620002e58184846200029e565b505050565b5b818110156200030d5762000301600082620002ce565b600181019050620002eb565b5050565b601f8211156200035c576200032681620001d0565b6200033184620001e5565b8101602085101562000341578190505b620003596200035085620001e5565b830182620002ea565b50505b505050565b600082821c905092915050565b6000620003816000198460080262000361565b1980831691505092915050565b60006200039c83836200036e565b9150826002028217905092915050565b620003b78262000132565b67ffffffffffffffff811115620003d357620003d26200013d565b5b620003df82546200019b565b620003ec82828562000311565b600060209050601f8311600181146200042457600084156200040f578287015190505b6200041b85826200038e565b8655506200048b565b601f1984166200043486620001d0565b60005b828110156200045e5784890151825560018201915060208501945060208101905062000437565b868310156200047e57848901516200047a601f8916826200036e565b8355505b6001600288020188555050505b505050505050565b611e5280620004a36000396000f3fe6080604052600436106100fe5760003560e01c80636352211e11610095578063a0712d6811610064578063a0712d6814610322578063a22cb4651461033e578063b88d4fde14610367578063c87b56dd14610383578063e985e9c5146103c0576100fe565b80636352211e1461025257806370a082311461028f5780638da5cb5b146102cc57806395d89b41146102f7576100fe565b806318160ddd116100d157806318160ddd146101c457806323b872dd146101ef57806342842e0e1461020b578063434645b414610227576100fe565b806301ffc9a71461010357806306fdde0314610140578063081812fc1461016b578063095ea7b3146101a8575b600080fd5b34801561010f57600080fd5b5061012a60048036038101906101259190611607565b6103fd565b604051610137919061164f565b60405180910390f35b34801561014c57600080fd5b5061015561048f565b60405161016291906116fa565b60405180910390f35b34801561017757600080fd5b50610192600480360381019061018d9190611752565b610521565b60405161019f91906117c0565b60405180910390f35b6101c260048036038101906101bd9190611807565b6105a0565b005b3480156101d057600080fd5b506101d96106e4565b6040516101e69190611856565b60405180910390f35b61020960048036038101906102049190611871565b6106fb565b005b61022560048036038101906102209190611871565b610a1d565b005b34801561023357600080fd5b5061023c610a3d565b60405161024991906116fa565b60405180910390f35b34801561025e57600080fd5b5061027960048036038101906102749190611752565b610a80565b60405161028691906117c0565b60405180910390f35b34801561029b57600080fd5b506102b660048036038101906102b191906118c4565b610a92565b6040516102c39190611856565b60405180910390f35b3480156102d857600080fd5b506102e1610b4a565b6040516102ee91906117c0565b60405180910390f35b34801561030357600080fd5b5061030c610b70565b60405161031991906116fa565b60405180910390f35b61033c60048036038101906103379190611752565b610c02565b005b34801561034a57600080fd5b506103656004803603810190610360919061191d565b610ce3565b005b610381600480360381019061037c9190611a92565b610dee565b005b34801561038f57600080fd5b506103aa60048036038101906103a59190611752565b610e61565b6040516103b791906116fa565b60405180910390f35b3480156103cc57600080fd5b506103e760048036038101906103e29190611b15565b610eff565b6040516103f4919061164f565b60405180910390f35b60006301ffc9a760e01b827bffffffffffffffffffffffffffffffffffffffffffffffffffffffff1916148061045857506380ac58cd60e01b827bffffffffffffffffffffffffffffffffffffffffffffffffffffffff1916145b806104885750635b5e139f60e01b827bffffffffffffffffffffffffffffffffffffffffffffffffffffffff1916145b9050919050565b60606002805461049e90611b84565b80601f01602080910402602001604051908101604052809291908181526020018280546104ca90611b84565b80156105175780601f106104ec57610100808354040283529160200191610517565b820191906000526020600020905b8154815290600101906020018083116104fa57829003601f168201915b5050505050905090565b600061052c82610f93565b610562576040517fcf4700e400000000000000000000000000000000000000000000000000000000815260040160405180910390fd5b6006600083815260200190815260200160002060000160009054906101000a900473ffffffffffffffffffffffffffffffffffffffff169050919050565b60006105ab82610a80565b90508073ffffffffffffffffffffffffffffffffffffffff166105cc610ff2565b73ffffffffffffffffffffffffffffffffffffffff161461062f576105f8816105f3610ff2565b610eff565b61062e576040517fcfb3b94200000000000000000000000000000000000000000000000000000000815260040160405180910390fd5b5b826006600084815260200190815260200160002060000160006101000a81548173ffffffffffffffffffffffffffffffffffffffff021916908373ffffffffffffffffffffffffffffffffffffffff160217905550818373ffffffffffffffffffffffffffffffffffffffff168273ffffffffffffffffffffffffffffffffffffffff167f8c5be1e5ebec7d5bd14f71427d1e84f3dd0314c0f7b2291e5b200ac8c7c3b92560405160405180910390a4505050565b60006106ee610ffa565b6001546000540303905090565b600061070682610fff565b90508373ffffffffffffffffffffffffffffffffffffffff168173ffffffffffffffffffffffffffffffffffffffff161461076d576040517fa114810000000000000000000000000000000000000000000000000000000000815260040160405180910390fd5b600080610779846110cb565b9150915061078f818761078a610ff2565b6110f2565b6107db576107a48661079f610ff2565b610eff565b6107da576040517f59c896be00000000000000000000000000000000000000000000000000000000815260040160405180910390fd5b5b600073ffffffffffffffffffffffffffffffffffffffff168573ffffffffffffffffffffffffffffffffffffffff1603610841576040517fea553b3400000000000000000000000000000000000000000000000000000000815260040160405180910390fd5b61084e8686866001611136565b801561085957600082555b600560008773ffffffffffffffffffffffffffffffffffffffff1673ffffffffffffffffffffffffffffffffffffffff168152602001908152602001600020600081546001900391905081905550600560008673ffffffffffffffffffffffffffffffffffffffff1673ffffffffffffffffffffffffffffffffffffffff16815260200190815260200160002060008154600101919050819055506109278561090388888761113c565b7c020000000000000000000000000000000000000000000000000000000017611164565b600460008681526020019081526020016000208190555060007c02000000000000000000000000000000000000000000000000000000008416036109ad57600060018501905060006004600083815260200190815260200160002054036109ab5760005481146109aa578360046000838152602001908152602001600020819055505b5b505b838573ffffffffffffffffffffffffffffffffffffffff168773ffffffffffffffffffffffffffffffffffffffff167fddf252ad1be2c89b69c2b068fc378daa952ba7f163c4a11628f55a4df523b3ef60405160405180910390a4610a15868686600161118f565b505050505050565b610a3883838360405180602001604052806000815250610dee565b505050565b606060006040518060400160405280600681526020017f4e617275746f000000000000000000000000000000000000000000000000000081525090508091505090565b6000610a8b82610fff565b9050919050565b60008073ffffffffffffffffffffffffffffffffffffffff168273ffffffffffffffffffffffffffffffffffffffff1603610af9576040517f8f4eb60400000000000000000000000000000000000000000000000000000000815260040160405180910390fd5b67ffffffffffffffff600560008473ffffffffffffffffffffffffffffffffffffffff1673ffffffffffffffffffffffffffffffffffffffff16815260200190815260200160002054169050919050565b600860009054906101000a900473ffffffffffffffffffffffffffffffffffffffff1681565b606060038054610b7f90611b84565b80601f0160208091040260200160405190810160405280929190818152602001828054610bab90611b84565b8015610bf85780601f10610bcd57610100808354040283529160200191610bf8565b820191906000526020600020905b815481529060010190602001808311610bdb57829003601f168201915b5050505050905090565b600860009054906101000a900473ffffffffffffffffffffffffffffffffffffffff1673ffffffffffffffffffffffffffffffffffffffff163373ffffffffffffffffffffffffffffffffffffffff1614610c92576040517f08c379a0000000000000000000000000000000000000000000000000000000008152600401610c8990611c27565b60405180910390fd5b6005811115610cd6576040517f08c379a0000000000000000000000000000000000000000000000000000000008152600401610ccd90611cb9565b60405180910390fd5b610ce03382611195565b50565b8060076000610cf0610ff2565b73ffffffffffffffffffffffffffffffffffffffff1673ffffffffffffffffffffffffffffffffffffffff16815260200190815260200160002060008473ffffffffffffffffffffffffffffffffffffffff1673ffffffffffffffffffffffffffffffffffffffff16815260200190815260200160002060006101000a81548160ff0219169083151502179055508173ffffffffffffffffffffffffffffffffffffffff16610d9d610ff2565b73ffffffffffffffffffffffffffffffffffffffff167f17307eab39ab6107e8899845ad3d59bd9653f200f220920489ca2b5937696c3183604051610de2919061164f565b60405180910390a35050565b610df98484846106fb565b60008373ffffffffffffffffffffffffffffffffffffffff163b14610e5b57610e2484848484611350565b610e5a576040517fd1a57ed600000000000000000000000000000000000000000000000000000000815260040160405180910390fd5b5b50505050565b6060610e6c82610f93565b610ea2576040517fa14c4b5000000000000000000000000000000000000000000000000000000000815260040160405180910390fd5b6000610eac6114a0565b90506000815103610ecc5760405180602001604052806000815250610ef7565b80610ed684611532565b604051602001610ee7929190611d15565b6040516020818303038152906040525b915050919050565b6000600760008473ffffffffffffffffffffffffffffffffffffffff1673ffffffffffffffffffffffffffffffffffffffff16815260200190815260200160002060008373ffffffffffffffffffffffffffffffffffffffff1673ffffffffffffffffffffffffffffffffffffffff16815260200190815260200160002060009054906101000a900460ff16905092915050565b600081610f9e610ffa565b11158015610fad575060005482105b8015610feb575060007c0100000000000000000000000000000000000000000000000000000000600460008581526020019081526020016000205416145b9050919050565b600033905090565b600090565b6000808290508061100e610ffa565b11611094576000548110156110935760006004600083815260200190815260200160002054905060007c0100000000000000000000000000000000000000000000000000000000821603611091575b6000810361108757600460008360019003935083815260200190815260200160002054905061105d565b80925050506110c6565b505b5b6040517fdf2d9b4200000000000000000000000000000000000000000000000000000000815260040160405180910390fd5b919050565b60008060006006600085815260200190815260200160002090508092508254915050915091565b600073ffffffffffffffffffffffffffffffffffffffff8316925073ffffffffffffffffffffffffffffffffffffffff821691508382148383141790509392505050565b50505050565b60008060e883901c905060e8611153868684611582565b62ffffff16901b9150509392505050565b600073ffffffffffffffffffffffffffffffffffffffff83169250814260a01b178317905092915050565b50505050565b600080549050600082036111d5576040517fb562e8dd00000000000000000000000000000000000000000000000000000000815260040160405180910390fd5b6111e26000848385611136565b600160406001901b178202600560008573ffffffffffffffffffffffffffffffffffffffff1673ffffffffffffffffffffffffffffffffffffffff168152602001908152602001600020600082825401925050819055506112598361124a600086600061113c565b6112538561158b565b17611164565b6004600083815260200190815260200160002081905550600080838301905073ffffffffffffffffffffffffffffffffffffffff85169150828260007fddf252ad1be2c89b69c2b068fc378daa952ba7f163c4a11628f55a4df523b3ef600080a4600183015b8181146112fa57808360007fddf252ad1be2c89b69c2b068fc378daa952ba7f163c4a11628f55a4df523b3ef600080a46001810190506112bf565b5060008203611335576040517f2e07630000000000000000000000000000000000000000000000000000000000815260040160405180910390fd5b80600081905550505061134b600084838561118f565b505050565b60008373ffffffffffffffffffffffffffffffffffffffff1663150b7a02611376610ff2565b8786866040518563ffffffff1660e01b81526004016113989493929190611d8e565b6020604051808303816000875af19250505080156113d457506040513d601f19601f820116820180604052508101906113d19190611def565b60015b61144d573d8060008114611404576040519150601f19603f3d011682016040523d82523d6000602084013e611409565b606091505b506000815103611445576040517fd1a57ed600000000000000000000000000000000000000000000000000000000815260040160405180910390fd5b805181602001fd5b63150b7a0260e01b7bffffffffffffffffffffffffffffffffffffffffffffffffffffffff1916817bffffffffffffffffffffffffffffffffffffffffffffffffffffffff191614915050949350505050565b6060600980546114af90611b84565b80601f01602080910402602001604051908101604052809291908181526020018280546114db90611b84565b80156115285780601f106114fd57610100808354040283529160200191611528565b820191906000526020600020905b81548152906001019060200180831161150b57829003601f168201915b5050505050905090565b606060a060405101806040526020810391506000825281835b60011561156d57600184039350600a81066030018453600a810490508061154b575b50828103602084039350808452505050919050565b60009392505050565b60006001821460e11b9050919050565b6000604051905090565b600080fd5b600080fd5b60007fffffffff0000000000000000000000000000000000000000000000000000000082169050919050565b6115e4816115af565b81146115ef57600080fd5b50565b600081359050611601816115db565b92915050565b60006020828403121561161d5761161c6115a5565b5b600061162b848285016115f2565b91505092915050565b60008115159050919050565b61164981611634565b82525050565b60006020820190506116646000830184611640565b92915050565b600081519050919050565b600082825260208201905092915050565b60005b838110156116a4578082015181840152602081019050611689565b60008484015250505050565b6000601f19601f8301169050919050565b60006116cc8261166a565b6116d68185611675565b93506116e6818560208601611686565b6116ef816116b0565b840191505092915050565b6000602082019050818103600083015261171481846116c1565b905092915050565b6000819050919050565b61172f8161171c565b811461173a57600080fd5b50565b60008135905061174c81611726565b92915050565b600060208284031215611768576117676115a5565b5b60006117768482850161173d565b91505092915050565b600073ffffffffffffffffffffffffffffffffffffffff82169050919050565b60006117aa8261177f565b9050919050565b6117ba8161179f565b82525050565b60006020820190506117d560008301846117b1565b92915050565b6117e48161179f565b81146117ef57600080fd5b50565b600081359050611801816117db565b92915050565b6000806040838503121561181e5761181d6115a5565b5b600061182c858286016117f2565b925050602061183d8582860161173d565b9150509250929050565b6118508161171c565b82525050565b600060208201905061186b6000830184611847565b92915050565b60008060006060848603121561188a576118896115a5565b5b6000611898868287016117f2565b93505060206118a9868287016117f2565b92505060406118ba8682870161173d565b9150509250925092565b6000602082840312156118da576118d96115a5565b5b60006118e8848285016117f2565b91505092915050565b6118fa81611634565b811461190557600080fd5b50565b600081359050611917816118f1565b92915050565b60008060408385031215611934576119336115a5565b5b6000611942858286016117f2565b925050602061195385828601611908565b9150509250929050565b600080fd5b600080fd5b7f4e487b7100000000000000000000000000000000000000000000000000000000600052604160045260246000fd5b61199f826116b0565b810181811067ffffffffffffffff821117156119be576119bd611967565b5b80604052505050565b60006119d161159b565b90506119dd8282611996565b919050565b600067ffffffffffffffff8211156119fd576119fc611967565b5b611a06826116b0565b9050602081019050919050565b82818337600083830152505050565b6000611a35611a30846119e2565b6119c7565b905082815260208101848484011115611a5157611a50611962565b5b611a5c848285611a13565b509392505050565b600082601f830112611a7957611a7861195d565b5b8135611a89848260208601611a22565b91505092915050565b60008060008060808587031215611aac57611aab6115a5565b5b6000611aba878288016117f2565b9450506020611acb878288016117f2565b9350506040611adc8782880161173d565b925050606085013567ffffffffffffffff811115611afd57611afc6115aa565b5b611b0987828801611a64565b91505092959194509250565b60008060408385031215611b2c57611b2b6115a5565b5b6000611b3a858286016117f2565b9250506020611b4b858286016117f2565b9150509250929050565b7f4e487b7100000000000000000000000000000000000000000000000000000000600052602260045260246000fd5b60006002820490506001821680611b9c57607f821691505b602082108103611baf57611bae611b55565b5b50919050565b7f4f6e6c79206f776e65722063616e20706572666f726d2074686973206163746960008201527f6f6e210000000000000000000000000000000000000000000000000000000000602082015250565b6000611c11602383611675565b9150611c1c82611bb5565b604082019050919050565b60006020820190508181036000830152611c4081611c04565b9050919050565b7f4d6f7265207468616e2035204e4654732063616e2774206265206d696e74656460008201527f2e00000000000000000000000000000000000000000000000000000000000000602082015250565b6000611ca3602183611675565b9150611cae82611c47565b604082019050919050565b60006020820190508181036000830152611cd281611c96565b9050919050565b600081905092915050565b6000611cef8261166a565b611cf98185611cd9565b9350611d09818560208601611686565b80840191505092915050565b6000611d218285611ce4565b9150611d2d8284611ce4565b91508190509392505050565b600081519050919050565b600082825260208201905092915050565b6000611d6082611d39565b611d6a8185611d44565b9350611d7a818560208601611686565b611d83816116b0565b840191505092915050565b6000608082019050611da360008301876117b1565b611db060208301866117b1565b611dbd6040830185611847565b8181036060830152611dcf8184611d55565b905095945050505050565b600081519050611de9816115db565b92915050565b600060208284031215611e0557611e046115a5565b5b6000611e1384828501611dda565b9150509291505056fea26469706673582212209ae08be713b20689181ab7a0f1c8d8a476495f451066423f8f97c4c5ec43d40064736f6c6343000812003368747470733a2f2f63686f636f6c6174652d72696769642d626f6f62792d3732302e6d7970696e6174612e636c6f75642f697066732f516d663147797170313766516a54387a67467358596d5946564670534836704a6a506773526241334e39725236532f3f5f676c3d312a3769716e396b2a5f67612a4d5463354d7a55774e7a45334e6934784e6a6b7a4d5445324f4455322a5f67615f35524d505847313454452a4d5459354d7a45784e6a67314e5334784c6a45754d5459354d7a45784e7a41324e7934324d4334774c6a41",
  "linkReferences": {},
  "deployedLinkReferences": {}
}